:020000041000EA
:1000000000B5324B212058609868022188439860DF
:10001000D860186158612E4B002199600221596106
:100020000121F02299502B49196001219960352056
:1000300000F044F80222904214D00621196600F024
:1000400034F8196E01211966002018661A6600F04E
:100050002CF8196E196E196E052000F02FF8012189
:100060000842F9D1002199601B49196000215960AB
:100070001A491B48016001219960EB211966A021F2
:10008000196600F012F800219960164914480160C1
:100090000121996001BC002800D000471248134993
:1000A000086003C880F30888084703B5996A0420EC
:1000B0000142FBD001200142F8D103BD02B5186610
:1000C0001866FFF7F2FF186E186E02BD00000240BE
:1000D000000000180000070000035F00212200005C
:1000E000F4000018222000A00001001008ED00E03C
:1000F00000000000000000000000000074B24E7A12
:1001000000200420F7010010C3010010C5010010F9
:10011000C1010010C1010010C1010010C101001097
:10012000C1010010C1010010C1010010C701001081
:10013000C1010010C1010010C9010010CB01001065
:10014000CD010010CD010010CD010010CD01001037
:10015000CD010010CD010010CD010010CD01001027
:10016000CD010010CD010010CD010010CD01001017
:10017000CD010010CD010010CD010010CD01001007
:10018000CD010010CD010010CD010010CD010010F7
:10019000CD010010CD010010CD010010CD010010E7
:1001A000CD010010CD010010CD010010CD010010D7
:1001B000CD010010CD010010CD010010CD010010C7
:1001C00000BE00BE00BE00BE00BE00BE00F04BF888
:1001D000103800BEF2EB8871C87F0010EC7F001071
:1001E0003402001090A31AE700202149086006C8D5
:1001F00081F3088810471F48006800282FD10DA4FC
:100200000ECC002902D000F012F8F9E71A491B4A77
:10021000002000E001C19142FCD1194988471949E9
:1002200088471949884700BEFDE701C901C29A42C3
:10023000FBD37047EC7F0010C0000020D4060020E4
:10024000008600100000042000000420008600103A
:1002500000100420001004200000000070470B482C
:1002600005F080FB0047EFF30580C0B27047000047
:1002700008ED00E0000000D0D8060020183B002068
:10028000DD3A0010F9230010C93B0010575600005A
:1002900006005250ABB360536C7F00100600525002
:1002A000861C03027C7F0010060052505422A29D3F
:1002B000887F001005005250DE65F468008600104B
:1002C000F8B5C04610B5064C2378002B07D1054B76
:1002D000002B02D0044800E000BF0123237010BDB2
:1002E000D807002000000000E0760010044B10B595
:1002F000002B03D00349044800E000BF10BDC046F6
:1003000000000000DC070020E0760010F0B5DE46BB
:100310004E4657464546C824E0B5A400075989B063
:100320007B1E0693C92381469B00C05806F054FEED
:10033000CA234A469B000600D05806F04DFE050031
:10034000002F00DCA9E0300005F042FE029003918E
:10035000280005F03DFEC8235B004B44C84600273B
:10036000A34604900591079349E0434602980399F8
:100370009A68DB6805F0AAFD05F042FE4346993312
:10038000FF331A685B6804000498059905F09EFD28
:1003900005F036FE824601377F2E03DD7F2C5DDDC2
:1003A000803E803C7F2D07DD53467F2B04DD80237C
:1003B0005B429C46803DE2440123220000932900D9
:1003C0005346300002F086F97F2C54DC7F2E52DC3D
:1003D0007F2D02DC53467F2B09DD01225346290085
:1003E000009230002200803B803902F073F908232C
:1003F0005A469C464B469B58E044BB424DDD029812
:10040000039943461A685B6805F060FD05F0F8FD46
:1004100043469133FF331A685B68060004980599D8
:1004200005F054FD05F0ECFD069B0500BB429CDC8D
:10043000029803994B461A685B6805F047FD05F082
:10044000DFFD079B04001A685B680498059905F0B6
:100450003DFD05F0D5FD013782469DE77F2D02DD8C
:1004600053467F2BA3DC012322000093290053462F
:10047000300002F02FF9012322003000803A00936F
:1004800029005346803802F025F908235A469C4635
:100490004B469B58E044BB42B1DC09B03CBC9046A3
:1004A0009946A246AB46F0BDF0B557464E46DE46ED
:1004B00045460300754AE0B5914600228FB00A33E5
:1004C00009930B0092464F460A33069001910B9315
:1004D0007B69002B17D0786806F07EFD099B05002C
:1004E000984210DCB86806F077FD0B9B0400984238
:1004F00009DC2B00069A1E339A4204DC0300019AA1
:100500001E339A4232DD01239C46D023E2449B00F5
:100510009C46534667440C2BDAD1069806F03AFD08
:100520005B4B196806F0EBFC051C019806F032FDE8
:10053000584B196806F0E3FC291C041C281C06F023
:10054000E7FC211C051C201C06F0E2FC011C281CF9
:1005500006F0D8FC504906F011FD431E98410FB03B
:100560003CBC90469946A246AB46F0BD3E680A9612
:10057000002EC8DD280005F02BFD0290039120001D
:1005800005F026FD731E0490059107935146434BD9
:1005900000229946424B92469846F933FF334B432B
:1005A000B944B84408930C910D9709E001239C4687
:1005B0000733E2449C460A9BE144E0449A4561D0FB
:1005C000029803994B461A685B6805F07FFC05F0BA
:1005D00017FD434604001A685B680498059905F006
:1005E00075FC05F00DFD079B060000259A4501DA14
:1005F00053465D1C089B2B4A9C4602980399654410
:100600009446EB0063441A685B6805F05FFC05F0F4
:10061000F7FC244B32359C46ED0065442A686B6834
:1006200007000498059905F051FC05F0E9FC02006B
:1006300006990198631A301A5B4340437D1A019969
:100640001818511AB61A8B4606F0A4FCE41B071CB6
:1006500058466D434043281806F09CFC011C381C8A
:1006600006F050FC64437643051CA01906F092FC8A
:10067000011C281C06F043FC06F0AEFC182895DC93
:1006800001206CE70C9B0D9F9A463CE7C00C0020B4
:1006900010080020140800200000C841E0FCFFFF03
:1006A00070FEFFFFA009002070B5344E01243068B1
:1006B00082B00200324D00942B68143219000A30C7
:1006C00002F008F830682B6800942968821D043312
:1006D0000A3001F0FFFF30682B680200009429689F
:1006E00004331832143001F0F5FF30682B68020033
:1006F000191D0B0018320630009401F0EBFF296839
:1007000032680B000094901D08333268043101F008
:10071000E1FF3068296802000B001E320833043103
:100720001830009401F0D6FF29683268083100942F
:100730000B0030681E3201F0CDFF296832680B00D3
:10074000009430680C330632083101F0C3FF306882
:10075000296802000B0018320C3308311E30009457
:1007600001F0B8FF3068296802000C310B00183224
:100770000630009401F0AEFF02B070BDC001002051
:10078000C4010020F0B5DE4657464E464546E0B56A
:1007900089B00693D023934601221B0689465968E7
:1007A0008046890B11408A465968090F1140019112
:1007B00059685B6804919B0E1A4200D19BE0A04AE5
:1007C0001368002B00D1B4E0013B00241360002328
:1007D000029303949B4B1B68002B00D194E052467C
:1007E000019B981A05F0F4FB974B1A685B6805F0BB
:1007F0007FFB43461A685B6805F068FB43460400CC
:100800000D0000221C605D60002305F0B3FB8F4EDD
:1008100000280AD0326873682000290005F056FBD2
:10082000434604000D001C605D6077683668220056
:100830002B003000390005F09DFB00280AD03B005A
:1008400020002900320005F038FB434604000D006B
:100850001C605D60049B20001E01F30F29000793BC
:1008600005F020FC06000F002000290005F030FCF8
:100870004B4604900591186805F0AAFB029A039B69
:1008800004000D003000390005F032FB02000B00BF
:100890002000290005F01AFB05F0B2FB4B4618605A
:1008A0005B46186805F094FB029A039B04000D0058
:1008B0000498059905F01CFB0B000200290020009C
:1008C00005F004FB05F09CFB5B4618605346002BCB
:1008D00037D0019B002B34D05D4B98461B68002B12
:1008E00004D15C4A136859424B411360079B002BAB
:1008F0002CD101230EE00023002402930394514BDA
:100900001B68002B00D06AE7514B98465346002BDA
:100910000AD1002342460020136009B03CBC904637
:100920009946A246AB46F0BD019B002BF1D00123B6
:10093000F0E70523802413600023E4050293039469
:10094000DDE7079B002B60D0414B9846424B1A686D
:100950009146002A1CD05A68002A59D09A68002A69
:1009600059D0DA68002A59D01A69002A59D05A6930
:10097000002A59D09A69002A59D0DA69002A59D038
:100980001A6A002A59D05A6A002ABFD10922914610
:100990004A4692009346142259465A502F4B320031
:1009A0001C685D683B002000290005F0A1FA4B4659
:1009B000DB0099462A4B029003914B441860596022
:1009C000049A059B2000290005F092FA06000F000A
:1009D000244B06984B441E605F6005F0F9FA029ABA
:1009E000039B05F073FA05F00BFB5A461E4B98501B
:1009F000129805F0EDFA32003B0005F067FA05F0B9
:100A0000FFFA5A46194B985080E7114B984680E7F9
:100A100001229146BCE702229146B9E703229146A2
:100A2000B6E704229146B3E705229146B0E70622D5
:100A30009146ADE707229146AAE708229146A7E72B
:100A4000C40800209809002088010020D00100205F
:100A50008C08002094080020F8080020C80100201D
:100A600020090020A0300020D008002070090020BC
:100A7000F0B5DE4657464E464546E0B51F00B34B3F
:100A80008346186864239DB01B1A894610003900FC
:100A90001600984605F006FB0E918246390030009C
:100AA00005F016FBAA4B32005C681B6825001C0091
:100AB00010903B002000139129000694079505F043
:100AC00005FA04000D0005F0EDFA029003912000F4
:100AD000290005F0FDFA069A079B04900591300065
:100AE000390005F0EAF904000D0005F0DBFA069084
:100AF00007912000290005F0EBFA43460890099180
:100B0000012B04DD934B1B68002B00D12CE100234B
:100B100000240C930D940A930B941A931B9418932E
:100B2000199416931794149315948B4B58461E687A
:100B30005F6805F04DFA0E9B04000D005246300030
:100B4000390005F0D5F902000B002000290005F05E
:100B5000BDF9149A159B04000D0005F0B7F905F0D6
:100B60004FFA169A179B8346290020000E940F9582
:100B700005F0ACF905F044FA8046484605F028FA3D
:100B8000109A139B04000D003000390005F0B0F9F5
:100B900002000B002000290005F098F9189A199B13
:100BA00004000D0005F092F905F02AFA1A9A1B9B31
:100BB0008146290020001094119505F087F905F071
:100BC0001FFA664B82461E685F68584605F000FAB9
:100BD000029A039B04000D003000390005F088F9EB
:100BE00002000B002000290005F067F905F008FA63
:100BF0001390484605F0ECF9049A059B04000D009B
:100C00003000390005F074F902000B0020002900C3
:100C100005F053F905F0F4F91490404605F0D8F9C1
:100C2000069A079B04000D003000390005F060F9BA
:100C300002000B002000290005F03FF905F0E0F963
:100C40001690504605F0C4F9089A099B04000D005F
:100C50003000390005F04CF902000B00200029009B
:100C600005F02BF905F0CCF93D4B18901C685D6838
:100C7000029A039B2000290005F03AF902000B00BC
:100C80000E980F9905F019F90A9A0B9B05F01EF9B9
:100C900005F0B6F9049A059B06002900200005F02E
:100CA00027F902000B001098119905F006F90C9A2B
:100CB0000D9B05F00BF905F0A3F9069A079B0700B9
:100CC0002900200005F014F902000B000E980F997E
:100CD00005F0F3F80A9A0B9B05F0F8F805F090F987
:100CE000089A099B29000290200005F001F90200F2
:100CF0000B001098119905F0E0F80C9A0D9B05F087
:100D0000E5F805F07DF90125040049465846149B95
:100D1000139A009501F0DEFC51464046189B169A46
:100D2000009501F0D7FC230039003000029A0095AD
:100D300001F0D0FC0B4B1B68002B00D093E01DB0E2
:100D40003CBC90469946A246AB46F0BDF43000202C
:100D5000D801002098090020A8010020A00100204F
:100D6000B0010020880800204346581005F030F9F3
:100D70004C4A4D4B149015913000390005F09DF808
:100D800004000D0005F08EF90A900B912000290057
:100D900005F09EF9434A444B0C900D913000390008
:100DA00005F094F804000D0005F07CF916901791F9
:100DB0002000290005F08CF9149E159F04003200D4
:100DC0003B000D000A980B9905F092F805F018F910
:100DD00005F0FEF832003B00149015911698179913
:100DE00005F086F805F00CF905F0F2F832003B004A
:100DF000169017910C980D9905F07AF805F000F906
:100E000005F0E6F832003B00189019912000290007
:100E100005F06EF805F0F4F805F0DAF83D003B0057
:100E200080273F06BC46320034000E9E1A901B916C
:100E300066445046310005F05BF805F0E1F805F036
:100E4000C7F8BC462200139C2B0064440A900B9107
:100E50001098210005F04CF805F0D2F805F0B8F82C
:100E60000C900D9161E649465846149B139A013344
:100E7000013201310130009501F02CFC5146404611
:100E8000189B169A0133013201310130009501F0AF
:100E900021FC029A631C0132791C701C009501F040
:100EA00019FC4CE7894160E5D022F93FF0B557467F
:100EB000DE4645464E46D84B82469B46E0B5D74C6B
:100EC0004300A544079353449D005B465544AD0140
:100ED00001915919C8239B00CB181F681400002FDB
:100EE00000DC0BE2FB000AAE1A003000984606F068
:100EF0002FF929009131FF31424659446EA806F07E
:100F000027F9CE2292009446079B53449B005344FA
:100F10009B015B4463441A68013A1A60FB0FDB19BA
:100F20005B101D199C46BD4200DBED1B012F00DC50
:100F3000DEE1019B002B00DA74E1079B5946534424
:100F40009B0053449B0198460093019B41440891A8
:100F50009905984658000B0001994044591ACB0056
:100F600001998000894640449846C84443465B0046
:100F70009846C84443469B010693534651469B05F9
:100F80005B1ADB009946D1444B465B009946D1443D
:100F90004B469B01994600239846009B5A46913345
:100FA000FF3302933B0080011218009252464746DD
:100FB00098469130FF30089904900892E300F318A6
:100FC0001A685B6800980A604B60069B0137181826
:100FD000029B9A4623003233DB005044F3181A6810
:100FE0005B68026043600098EB00F3181A685B6866
:100FF000026043604B46C818049B01349A462B009C
:101000003233DB005044F3181A685B680135026024
:101010004360A04500DC0024A84500DC0025009BBF
:10102000083108330093BC45C8DC4746089B9A4604
:101030000023012F00DD21E162460092002A01DC3D
:101040000122009264442500BC4200DBE2E0009AE9
:1010500001320692EA00B2181068516854466822BC
:10106000624391464B441C00DB005B441A685B689A
:101070000290039104F02AFF0022694B04F038FF2C
:1010800080230022DB0504F021FF009B0A001F00E3
:101090004F44FB009846D844010043463235323471
:1010A000ED00E4005C447619356876680891099291
:1010B00019605A602268636828003100049505961B
:1010C00004F004FF0022564B04F012FF802300229C
:1010D000DB0504F0F2FE04000D003237FF00019B37
:1010E0005F443C607D60002B00DACAE008980999F3
:1010F00068265E43069AB318DA005A4410605160BD
:1011000041463233DB005B441C605D600A684B681B
:101110000298039904F0DAFE0022414B04F0E8FE45
:1011200080230022DB0504F0C8FE069A0D009446D9
:10113000E14449460400CB005B441C605D600498B8
:1011400005993A687B6804F0C1FE0022344B04F034
:10115000CFFE80230022DB0504F0B8FE4A46009F44
:101160003232BC46D30066445B4418605960F300D9
:101170005B441C605D60C8253236F6005E4430601A
:1011800071600799069851448C005444A4015C4452
:10119000AD0063191860019B9C46590061448900A9
:1011A0006144890159444B191860C92080002318F3
:1011B0001A680B1804301A6023181A680B181A6082
:1011C000CD2301229B00CB181A60CB239B00E6188D
:1011D0003268CB181A60CC239B009C46CD18FC21AA
:1011E00064442068890505F08DFE00212860306880
:1011F00005F088FEFC2130608905206805F07FFE3F
:101200002060DB239B009D443CBC90469946A2464F
:10121000AB46F0BDE51B1AE7A009002094FCFFFFD8
:101220000000E03F079B002153449A005B46524474
:10123000920198189132FF325A449046E146E300F9
:10124000F3181A685B680260436023004546323336
:10125000DB00F31801341A685B6801312A606B60A7
:10126000A74200DC002408239C460830E04489455E
:10127000E5DCCC460023012F00DCDDE66346013BC4
:10128000DAE6069B029803991E00089A099B04F06F
:101290001DFE00221A4B04F02BFE80230022DB05EA
:1012A00004F00BFE4E44F7005F4422002B00386030
:1012B00079600498059904F009FE0022104B04F0AF
:1012C00017FE80230022DB0504F000FE3236F60014
:1012D0005E44306071600799069A51448B00C821C2
:1012E00089008C4653449B015B4463441A6088E741
:1012F0000123002206930092023BABE60AAE00E611
:101300000000E03FF0B5DE4657464E464546E0B5A4
:10131000834B89B01A68082A05DC1900531C0B603E
:10132000002B00DCFCE17F4B9B460023069306F07C
:1013300063F905F02FFE7C4905F0EAFDC02189051F
:1013400005F0E6FD5B4679495860041C05F01CFE7B
:1013500000280DD08521201CC90505F00FFE0028AE
:1013600006D0201C714905F0CAFD5B46041C58607C
:101370008521201CC90505F007FE00280BD06C490B
:10138000201C05F0FBFD002805D06849201C05F055
:10139000B9FD5B46586006F02FF905F0FBFD624988
:1013A00005F0B6FDC021890505F0B2FD5B465F4939
:1013B0009860041C05F0E8FD00280DD08521201C54
:1013C000C90505F0DBFD002806D0201C574905F0B3
:1013D00096FD5B46041C98608521201CC90505F01C
:1013E000D3FD00280BD05249201C05F0C7FD002872
:1013F00005D04E49201C05F085FD5B46986006F03F
:10140000FBF805F0C7FD8621C90505F081FDC02167
:10141000890505F07DFD5B465A469860012303204F
:101420005361069B1840013005F0B4FD051C079080
:1014300005F0D2FD5B4644002418A40098611C60AE
:10144000200004F0C5FD02000B003A483A4904F0C0
:1014500046FD049005913949281C05F059FD05F019
:10146000F3FD06000F00002C00DC56E10022344B97
:1014700000245B449A46334B00255B449946324B2B
:1014800000940195029203930023984609E004F02A
:1014900009FE029003912000290004F019FE00903B
:1014A00001910298039932003B0004F021FD53465C
:1014B00003C30098019932009A463B0004F018FDDE
:1014C0004B4603C3994606F097F805F063FD81216A
:1014D000C90505F01DFDC021890505F019FD011C98
:1014E0008020C00505F00BFD05F0AEFD02000B00ED
:1014F0003000390004F0EAFC049A059B06000F0056
:101500002000290004F0E2FC01239C465B461B6896
:10151000E04404000D004345B9DC5D46079E1BE036
:10152000F0300020C00C00200000DC420000F04140
:101530000000A0426E861BF0F92119400000A04077
:10154000E0FCFFFF70FEFFFF0000F03F0021201CC9
:1015500005F00CFD002838D006F04EF8FE210700FB
:101560008905301C05F0CEFC041C380005F012FD86
:101570008121C90505F0CCFCC021890505F0C8FC16
:10158000011C8020C00505F0BAFC211C05F0BDFC43
:10159000E86006F031F805F0FDFC8121C90505F091
:1015A000B7FCC021890505F0B3FC011C8020C005F3
:1015B00005F0A5FC211C05F0A8FC0021041C2861F5
:1015C000E86805F0D3FC0028C0D1D0218900AB46E3
:1015D0008C465B4B069A1B6801320692E3449342A9
:1015E00000DDA4E60B2B00DD8DE0CD2080008446DD
:1015F00000205A00D21892005249D21892018A183B
:10160000624410605A1C0B2B7DD0CD208000844694
:10161000002053009B189B009B189B01CB18634430
:101620001860541C0B2A6ED063001B199B001B19F9
:101630009B01CB1863441860941C0A2A63D0630092
:101640001B199B001B199B01CB1863441860D41C09
:10165000092A58D063001B199B001B199B01CB184A
:1016600063441860141D082A4DD063001B199B00A9
:101670001B199B01CB1863441860541D072A42D0E4
:1016800063001B199B001B199B01CB186344186056
:10169000941D062A37D063001B199B001B199B0160
:1016A000CB1863441860D41D052A2CD063001B1985
:1016B0009B001B1914009B01CB186344186008346D
:1016C000042A20D063001B199B001B1914009B01E6
:1016D000CB18634418600934032A14D063001B1923
:1016E0009B001B199B01CB186344186010000A3043
:1016F000022A08D043001B189B001B189B01C91825
:10170000002361440B6064220F4B1A6009B03CBC9B
:1017100090469946A246AB46F0BD2E1C5D461BE79F
:101720005800C0188000C318CD20800084460020D7
:1017300004499B01CB1863441860023265E7C04638
:10174000F0300020A009002088080020F0B5DE4617
:1017500057464E464546E0B5E64B9BB013930023F3
:101760001593139A1368002B00DCFFE1013B136013
:10177000002B00D1FAE1159BDF4AE049D258E04D39
:10178000CE585C00651910001892199604F020FCE0
:101790002A686B6804F09AFB04F032FCD94B050010
:1017A0001790E418300004F013FC2268636804F01A
:1017B0008DFB04F025FC2B0016907F2D00DC5CE2F5
:1017C000803B179303007F2800DC62E2803B169386
:1017D000CD4B9B4600230C935B465B69002B0DD1E0
:1017E0000C9B01330C930C2B00D129E2D0239B00DE
:1017F0009C46E3445B465B69002BF1D05B4658682E
:1018000005F0EAFB5B460500986805F0E5FB5B46E2
:101810001B6804000D93002BE2DD189805F0BAFB5D
:10182000071C0F90199805F0B5FB8146109017988A
:1018300005F0B0FB82461190169805F0ABFB5146BF
:1018400080461290484605F063FB4146061C381C52
:1018500005F05EFB011C301C05F051FB07902800D1
:1018600004F0B6FB08900991200004F0B1FB0A9047
:101870000B914946404605F042FB5146051C381C79
:1018800005F03DFB5B46913BFF3B5C681B680293A8
:1018900003949E4B82465B4419685A6806939C4B9E
:1018A000009101925B440593002304935B46AB4691
:1018B0001493089A099B0098019904F007FB04F01F
:1018C0009FFB0A9A0B9B04000298039904F0FEFA0E
:1018D00004F096FB049B05000E9301330493069BD2
:1018E00020009968DA68059B009101921E685F6884
:1018F0000296039705F04EFB041C280005F04AFBF6
:10190000089A099B061C0098019904F0DFFA04F07C
:1019100077FB05F03FFB0A9A0B9B071C0298039983
:1019200004F0D4FA04F06CFB05F034FB5946051CB6
:10193000201C05F0EDFA51468046301C05F0E8FA0F
:10194000011C404605F0DEFA079905F0DBFA59461E
:101950008046381C05F0DCFA51468146281C05F00B
:10196000D7FA011C484605F0CDFA079905F0CAFAE6
:1019700000218146404605F007FB002806D00021E3
:10198000484605F001FB002800D046E10021404612
:1019900005F0F4FA002800D067E1311C281C05F09E
:1019A000AEFA391C8046201C05F0A9FA391C814684
:1019B000301C05F0ADFA291C061C201C05F0A8FA05
:1019C000011C301C05F09BFA4146041C0F9805F0E1
:1019D0009FFA4946051C109805F09AFA011C281C2C
:1019E00005F090FA211C05F08DFA4146051C11986E
:1019F00005F08EFA4946061C129805F089FA011C7A
:101A0000301C05F07FFA211C05F07CFA0021041C33
:101A1000281C05F0B9FA002806D00021201C05F08A
:101A2000B3FA002800D0F8E00021281C05F0A6FA3F
:101A3000002800D0EAE05946484605F069FA5146C8
:101A4000041C404605F064FA011C201C05F057FAFE
:101A5000002105F08BFA002800D0DEE0149B0C99E1
:101A60009B4680462B4805F017FD5B462A499A693C
:101A70000868930084465B429B1A193363440B60E9
:101A8000012A00DC0FE1CD22244B92009958002955
:101A900065D0234A9A58002A00D174E1214A9A5805
:101AA000002A00D171E1204A9A58002A00D16EE143
:101AB0001E4A9A58002A00D16BE11D4A9A58002A02
:101AC00000D16AE11B4A9A58002A00D163E11A4A00
:101AD0009A58002A00D162E1184A9A58002A00D187
:101AE0005FE1174A9A58002A00D15CE1154A9A58DA
:101AF0002AE0C046F8080020D00800207009002025
:101B000020090020A0300020C00C0020E0FCFFFFD6
:101B100078FEFFFFE0760010A8080020A009002052
:101B200074060000B4090000F40C0000341000003A
:101B300074130000B4160000F4190000341D0000F6
:101B400074200000B4230000002A00D12DE1984A3F
:101B500099584B4259414B420C21194001390E9A78
:101B60000C98FFF7A3F90023139A1360139B043317
:101B70001393159B04331593282B00D0F1E58D4A60
:101B80001368002B3BDD013B1360002B37D08A4BE1
:101B90008A4F1968386805F0B5F9894E894B051CDC
:101BA00019683860306805F0ADF98749041C306069
:101BB000281C05F0E9F9002806D08621281CC90553
:101BC00005F09DF9051C38607F49201C05F0DCF903
:101BD000002806D08621201CC90505F090F9041CB8
:101BE00030600021281C05F0C9F9002800D0BCE0B5
:101BF0000021201C05F0C2F9002800D0AEE01BB087
:101C00003CBC90469946A246AB46F0BD0021201C44
:101C100005F0B4F9002800D10DE7069B0D9A0833B2
:101C20000693059B08330593049B934200D040E63E
:101C3000149B9B460C9B01330C930C2B00D0D5E5D9
:101C40006249179A0B6816989B1A614A5B4312689F
:101C5000121A52439B181D2B61DD5E4A159B179982
:101C6000D1505D4A1699D15080E70021484605F0D1
:101C700085F9002800D190E6CFE703007F280FDD2B
:101C8000803B1693179B002B00DBA1E5169B80334E
:101C90001693169B002B00DB9AE58033169397E58D
:101CA000002DF3DBF5E74D4805F064FB5B4642464B
:101CB0005A61CD224A4B92009C584A4A4A489A5847
:101CC000A4184A4A9A58A418494A9A58A418494A42
:101CD0009A58A418484A9A58A418484A9A58A418D6
:101CE000474A9A58A418474A9A58A418464A9A58F4
:101CF000A418464A9A58A4182D4A9B58E418210063
:101D000005F0CAFB002C00D02DE7414A13680133CF
:101D10001360FFF7F7FA3F4805F02CFB23E7002498
:101D20003D4B1C601E235B420B6005F065FC05F01B
:101D300031F93A4905F0ECF8C021890505F0E8F8D9
:101D4000374905F0DFF805F047F9364B364A186099
:101D5000136832331360139B1C6007E78621201C35
:101D6000C90505F0CFF8306049E78621281CC90570
:101D700005F0C8F800213860201C05F0FFF80028A5
:101D800000D13CE7EAE70121E9E60221E7E6032189
:101D9000E5E60421E3E60621E1E60521DFE6072189
:101DA000DDE60821DBE60921D9E60A21D7E6C046AF
:101DB000F426000004080020080800201008002075
:101DC000140800200C0800200000FE42C001002082
:101DD000C4010020D008002070090020F076001017
:101DE000A009002074060000FC760010B409000071
:101DF000F40C00003410000074130000B41600004E
:101E0000F4190000341D000074200000B423000009
:101E1000B80100200C770010AC08002000004843F7
:101E20000000C842B0080020A8080020F0B5DE4637
:101E30004E4645465746E0B59BB005F0DDFB05F044
:101E4000A9F8B04905F064F8C021890505F060F8EB
:101E5000AD4905F057F805F0BFF80525AB4B186004
:101E6000052000F08FFFAA4E2A00310007A803F0DA
:101E700035FD782400F0D0FB282120B200F078FF57
:101E8000053C07A800F00AFF00F066FB322CF1D1F8
:101E90009620400001F070FA00F0BEFB282120B22D
:101EA00000F066FF053C07A800F0F8FE00F054FBC8
:101EB00023001433F0D100F0AFFB013D00F04CFBE8
:101EC000C82001F059FA002DCED102210A2000F0DD
:101ED0004FFF012000F056FF012000F05DFF0022BF
:101EE00000230A920B9301228A4B8B491A60032329
:101EF0000B608A4908950D60894909950A60894AED
:101F00001360FFF7FFF928220021874805F01AF92E
:101F1000402303930493039B09AA009308A9049BFD
:101F20000AA8FEF72FFC8346002800D013E27F4B5F
:101F30001B68002B00D113E17D4E764B7D4D1B6855
:101F40002C680293002B00D1D3E0002C00D0D0E00D
:101F500003990498FEF7A8FA00280CD064226D4B70
:101F600008941C60744B09941A606E4B6D4A1B6890
:101F70000293013B136000F04FFB0A9A0B9B0399FD
:101F80000498FEF775FD3368002B00D0B7E0614B75
:101F90001B680293002B06D1674A1368013B13604C
:101FA000002B00DC72E19C23644C9B01E518236844
:101FB000002B03D0624BE018FEF7A8F9D0239B005A
:101FC0009C466444AC42F2D100240127564B1B5975
:101FD0000293002B2ADD5B4B1D595B4B2A001E59D7
:101FE0006B1E984631004046731E00979A4600F0DB
:101FF00071FB4046731C2A0031000097994600F09F
:1020000069FB6B1C98462A005346310040460097F6
:1020100000F060FB2A00310040464B46009700F07C
:1020200059FB01223100280000F036FB0434282C33
:10203000CCD1464B1B68002B2FDD454B0126186881
:1020400004F0CAFF434B0400186804F0C5FF050004
:10205000671E431E0100220038000096994600F0DA
:1020600039FB6B1C9846380022002900671C00963B
:1020700000F030FB4B46220029003800009600F0AB
:1020800029FB2200290038004346009600F022FB7D
:1020900001222900200000F0FFFA214B2E491B6885
:1020A0000DA802931D4B1B680593059A029B03F034
:1020B00015FC1C4B1C68002C0EDD5E46274D0DA840
:1020C00005F0B4FA0DAB9C460222290060440136AB
:1020D00005F03EF8A642F2D10121012000F048FEB1
:1020E0000DA800F0DBFD00F037FA142001F044F9F0
:1020F00011E7002C00DC3EE7013C2C603BE7FEF7DB
:10210000D3FA44E7000048430000C842B00800206A
:102110001877001098090020F0300020A80800204F
:10212000B8010020BC010020F8080020940800201D
:10213000AC08002088080020F4300020D40C0020D7
:10214000CCFCFFFFD008002070090020040800200C
:1021500010080020140800201C77001030770010B1
:10216000934B1B680293002B00D0DCE0914B1E6860
:102170005F68914B98469C239B0143449A46434693
:102180001B69002B66D04346986804F05DFF32005F
:102190003B0003F0ADFE4346040018680D0004F058
:1021A00053FF02000B002000290003F08FFE03F014
:1021B00063FF434681461860D86804F045FF32004B
:1021C0003B0003F095FE4346040058680D0004F000
:1021D0003BFF0B0002002900200003F077FE03F014
:1021E0004BFF4346041C58600021484604F0C6FEDD
:1021F000002807D086214846C90504F083FE4346DF
:102200008146186048466D4904F0BEFE002806D09D
:1022100086214846C90504F072FE43461860002135
:10222000201C04F0ABFE002807D08621201CC90525
:1022300004F068FE4346041C58606049201C04F00A
:10224000A3FE002806D08621201CC90504F057FEF5
:1022500043465860D0239B009C46E044D0458ED135
:10226000FFF774FA564E3368002B1AD1554B554A76
:102270001B680293013B1360002B00DD5DE61E220C
:10228000514B52421A600123336056E64F4B1B6894
:102290000293002B5FD00123454A136063332B6008
:1022A00081E6494C23687F2B5CDC01332360484D79
:1022B0002B68002B00D040E62368002B00DC3CE6B6
:1022C00005F09AF904F066FE424904F021FEC021AF
:1022D000890504F01DFE404904F056FE002800D197
:1022E0002BE67D2320682B600F3004F053FE3B4B20
:1022F000041C18603A4B18680C3004F04BFE394B44
:102300001860049804F046FE011C201C04F03CFEFA
:1023100000284BD1FE239B05334A1360FE22334B2A
:1023200092051A6009E6099A039B94466344039355
:10233000089A049B9B1804932FD4049B7F2B01DDE8
:10234000803B0493039B002B2DDB7F2B00DC0DE7F0
:10235000803B03930AE71BB03CBC90469946A246DB
:10236000AB46F0BD002333601E3B236005F044F90B
:1023700004F010FE1E4904F0CBFDC021890504F0D5
:10238000C7FD144904F0BEFD04F026FE0D4B186095
:102390003368002B00D08AE768E7049B80330493FE
:1023A000039B002BD1DA80330393DFE6114BB3E7B5
:1023B0009809002080010020C40C00200000FE428B
:1023C000AC080020B0080020C0010020BC010020A3
:1023D000040800200000C8420000BE42100800208F
:1023E000C401002014080020080800200C08002068
:1023F00000004843000080BFF0B5D6464F46464631
:10240000C0B564208EB000F0B7FF4A4C4A492000A6
:1024100005F04EF80321082000F0C8FC0321092034
:1024200000F0C4FC00220121082000F0D7FC0022AB
:102430000121092000F0D2FC200000F0EFF93F4C10
:10244000D0252700012610372D06206800F0DEFC7D
:10245000330001CC012283400021AB6200F0BEFCBE
:10246000BC42F2D1022000F08DFC012000F094FC6F
:1024700028210A2000F07CFC314800F00FFC0120EC
:1024800000F080FC3C21082000F072FC2D4E300052
:1024900000F004FC00F060F86B681B0109D4D02543
:1024A00001242D06642000F067FF6B68DB0E1C42E0
:1024B000F8D0254BD0259A46244B01249946244B2D
:1024C000244F98462D06FFF7B1FC00F0A5F85346BF
:1024D0004A461B681268414601A803F0FFF914211F
:1024E000082000F045FC01A800F0D8FB28210A20B4
:1024F00000F03EFC380000F0D1FB3C21082000F049
:1025000037FC300000F0CAFB00F026F86B68DB0EE9
:102510001C42D8D1642000F02FFF6B68DB0E1C42F8
:10252000D1D1642000F028FF6B68DB0E1C42CAD1B9
:10253000F0E7C04680020020006A180090010020E9
:102540003477001040770010B8010020A808002060
:10255000547700106C770010F0B5D6464F464646CB
:102560000025C0B52A4E84B003AC022322003C21D2
:1025700025803000009504F0EFFF80235B0123806D
:1025800022003C21994630000223009504F0E4FF2C
:102590008023DB012380220002233C2130000095B0
:1025A00004F0DAFF1B4B0027984650235B429A4603
:1025B00053463B436370220002233C2125703000C8
:1025C000009504F0C9FF022322003C212580300041
:1025D000009504F0C1FF4B46220023803C210223DA
:1025E0003000009504F0B8FF812342463C213000C2
:1025F000009504F0B1FF81239C460137E044102F81
:10260000D6D104B01CBC90469946A246F0BDC04647
:1026100080020020FC300020812210B5134C0021E4
:102620002000120104F08EFD40238122A354813248
:10263000A3548422FF32A3548132A3540C4AA354DE
:102640000C4A2370A3540C4AA3548132A3540B4A5E
:10265000A3540B4AA3540B4AA3540B4AA3540B4A4A
:10266000A3540B4AA3540B4AA35410BDFC300020C2
:1026700085020000060300008703000089040000B3
:102680000A0500008B0500000C0600008D06000006
:102690000E0700008F07000010B57F2811D87F2992
:1026A0000FD8CC10E3011B191818094B0130C018C2
:1026B00007231940012A05D001228A400378934359
:1026C000037010BD8A4003781A430270F9E7C046D0
:1026D000FC300020F0B54E464546DE465746E0B594
:1026E0005D1AEC172D19161A6540F417361983B0C8
:1026F0006640B54205DD04B210B21A0003000800BE
:10270000210090425FDD07B2801A09B284B2A04670
:10271000CC1A8A46E117641800B24C40A146C40F97
:102720002418012064108446534502DB01214942EC
:102730008C46BA4240DC494688B207218946414668
:1027400000958046019122E07F2B13D87F2A11D873
:10275000D010C10109183048C91882460C980131BF
:102760005144012853D0484610400125854008783F
:10277000A84308704146611A88B20CB2090403D517
:1027800001996344441824B20132BA4214DC00991E
:10279000B142D9DC7F2AEDD87F2BEBD8D810C1010C
:1027A00009181D48891882460C98013151440128A6
:1027B00025D048461840D8E703B03CBC904699461F
:1027C000A246AB46F0BD141AA446A7B2B8465F1A9B
:1027D000FC173F196740644624B2B946E70F3C191D
:1027E00064101700994204DA0B00012102008C46A4
:1027F000A1E70B000121494202008C469BE705003E
:10280000484618408540087828430870B2E705001C
:1028100048461040F6E7C046FC300020F0B5C646FA
:10282000002500B5934E84B0934B03AC2380220067
:1028300002233C213000009504F08EFE8F4B2200D5
:1028400023807F233C21A370300000957C3B04F063
:1028500083FE80239B002380FF3B22003C2130002D
:102860000095FF3B04F078FE802380275B012380E6
:10287000FF019846220002233C213000009504F01D
:102880006BFE2780220002233C213000009504F0DB
:1028900063FE7B4B220023803C2102233000009505
:1028A00004F05AFE774B220023803C2102233000A3
:1028B000009504F051FE744B220023803C2102233A
:1028C0003000009504F048FE704B220023803C212C
:1028D00002233000009504F03FFE6D4B2200238060
:1028E0003C2102233000009504F036FEC0239B01FA
:1028F0002380220002233C213000009504F02CFEAE
:10290000644B220023803C2102233000009504F018
:1029100023FE614B220023803C21022330000095DE
:1029200004F01AFE2200258002233C21300000958D
:1029300004F012FE594B220023803C210223300078
:10294000009504F009FE564B220023803C2102230F
:102950003000009504F000FE524B220023803C2101
:1029600002233000009504F0F7FDF8235B0123807B
:10297000220002233C213000009504F0EDFD4A4B7B
:10298000220023803C2102233000009504F0E4FD66
:1029900090235B012380220002233C21300000951C
:1029A00004F0DAFD414B220023803C210223300059
:1029B000009504F0D1FD2200278002233C21300045
:1029C000009504F0C9FD0A2000F0D6FC2200258005
:1029D00002233C213000009504F0BEFD4346220056
:1029E00023803C2102233000009504F0B5FD022332
:1029F000220027803C213000009504F0ADFD6420CA
:102A000000F0BAFC81222A4F00213800120104F0A4
:102A100099FB40238122BB548132BB548422FF3274
:102A2000BB548132BB54234A3B70BB54224ABB5433
:102A3000224ABB548132BB54214ABB54214ABB5465
:102A4000214ABB54214ABB54214ABB54214ABB549E
:102A5000214ABB54FFF780FD204B220023803C21FC
:102A600002233000009504F077FD04B004BC9046CA
:102A7000F0BDC0468002002000AEFFFF00A8FFFFAF
:102A800000B0FFFF00A1FFFF00A6FFFF00ADFFFFAA
:102A9000008BFFFF00C8FFFF00D3FFFF00D5FFFF43
:102AA0000080FFFF00D9FFFF00DAFFFF00DBFFFF20
:102AB000FC300020850200000603000087030000B0
:102AC000890400000A0500008B0500000C060000C8
:102AD0008D0600000E0700008F07000000AFFFFF0B
:102AE000F0B557464546DE464E46E0B58DB09A46AF
:102AF00016AB1B880D00029317AB1B78099103934B
:102B000019007F287FDC7F2D7DDC8C469B00634491
:102B10001B18002B77DDAC46CB0063442C00002B48
:102B200071DD93009A188BB2049383B2079300234C
:102B30000893ABB20A93574B0834D3180690059408
:102B40000B93089B052B00D1A0E00B9AD35C984611
:102B50006B46099E1C27DF5F0A9D26E0039B012B25
:102B600058D106997F2915D87F2E13D88C46F2109C
:102B7000D3019B18484A6344944652460133634448
:102B8000012A00D17EE007223240039991401A7851
:102B90008A431A7043465B089846049B01369C465C
:102BA000059B6544ADB2B34221D001234246134296
:102BB000D4D102995145EDD0039B012B46D1069803
:102BC0007F28E7D87F2EE5D88446F210D3019B18E2
:102BD000314A634494460722013363443240012959
:102BE000D3D191400A0019780A431A70D2E7069BA4
:102BF000089A01330693079B013263449BB2089203
:102C00000793062A9DD10DB03CBC90469946A2463A
:102C1000AB46F0BD99462CB2A1444C45BADA9B466E
:102C2000BB442A005B464D46B34691461E005346C0
:102C300021000093230001343200380024B2FFF752
:102C400049FDA542F3DC4D465E46A3E799462CB20A
:102C5000A144A1459EDD9B46BB442A005B464D46F0
:102C6000B34691461E00029B2100009323000134CD
:102C70003200380024B2FFF72DFDA542F3DC4D46AB
:102C80005E4687E7063251463240AAE7002398465F
:102C90005EE7C04688770010FC300020F0B5D646CD
:102CA0004F4646460400C0B582B004F0BFFC22780F
:102CB000002A4BD0002849D0274B284E9846284B55
:102CC0002518994632E00D2A2BD0434649461B88E9
:102CD000244F9A460023C95E0023F05E3B7801939F
:102CE000214B1B8800935346FFF7FAFE3A78308851
:102CF0005300D3185B001B181C489BB200781100CE
:102D0000338000280DD09000121A52008032934276
:102D100007DD4B461B88C900C9184B4619800023A4
:102D200033802278002A11D0AC420FD001340A2A15
:102D3000C9D10C4B0A4A1B781188DB005B18138041
:102D40000022064B1A802278002AEDD102B01CBC6A
:102D500090469946A246F0BD123900200C39002059
:102D6000F83000200F390020103900200E390020E3
:102D7000024B1880024B19807047C0460C39002066
:102D8000F8300020031C002800D10123014A1370F1
:102D90007047C0460F390020024B1880024B188044
:102DA0007047C0461239002010390020094A8300BC
:102DB00094464022634410B51C68C0006240C024A1
:102DC00014408022520113431C60034B9C46604414
:102DD000416010BD04C00140004001400A4B80002A
:102DE0009C4604236044002901D00C230821002ABA
:102DF00000D10B00026853400C221A4080235B0173
:102E0000184302607047C04604C001400123D0222D
:102E10008340120693629361094A830094464022DC
:102E200063441968C0004A40C02111408022520109
:102E300013431960034B9C4605236044436070476D
:102E400004C0014000400140F8B5CE4647469146D7
:102E500080B5EFF3108772B6124E3368002BFCD0AA
:102E6000BFF35F8FCB08C55C0724C218280001237D
:102E70000C409446E0401A000240904603420DD1B7
:102E8000A34062462B431370BFF35F8F434633600A
:102E900087F310880CBC90469946F8BD484600F070
:102EA00095FEC0462C0100D00021044B044ABFF31C
:102EB0005F8F02C39342FAD17047C046000100D031
:102EC000800100D0044A1078431CDBB2172B00D9D4
:102ED000102313707047C046E0010020024B1868B1
:102EE0008007C00F7047C04600C0064083680B488B
:102EF00010B5844661446244090112019A185918B8
:102F000054684B6801209C4201D802D00020C0B216
:102F100010BD12680B689A42F9D8F7E7FFFFFF0F60
:102F200040BF002000217047F8B557464E46454641
:102F3000DE46E0B5434D81468A466A68EFF3108865
:102F400072B61368002BFCD0BFF35F8F2E68B47B82
:102F5000002C3ED0670033683F19033FDA195378DD
:102F6000B373002B00D1F37300239370537013706D
:102F7000A968354A8C464946A2181201624411607C
:102F8000514651603149D36091603268D2199370D3
:102F900053701370737B9B46002B35D022001900B1
:102FA000B068736898473268002820D05B4658465E
:102FB0005B005B44D719033BB870D118D35C002B7E
:102FC00000D07B705B460C7073735C451DD000268F
:102FD00026E06B68BFF35F8F1C6088F310880120C8
:102FE00040423CBC90469946A246AB46F8BD5B4683
:102FF0005B005B44033BD3189C70D119D25D002A5F
:1030000000D05A705B460B7074734A465346287D55
:1030100000F0CAFA061EDAD02100286800F020FD70
:10302000EB686A681B19013B1B78BFF35F8F0021B7
:10303000116088F310880020002ED2D1180220439E
:10304000CFE7C046E4010020FFFFFF0F212F001053
:10305000F8B5574645464E46DE46E0B599460CABB8
:1030600019780DAB1B78050090469A460768002931
:1030700012D1BE7B002E45D074003B68A419033CDE
:103080001B195A783100BA73002A00D1FA73002252
:103090009A705A701A7003E00E004C006418033CDA
:1030A0002C4B00229C46AB6861449C464346090178
:1030B00061440B604B464B600A9B8B600B9BCB6063
:1030C0003B681B199A705A701A707B7B9B46002BC9
:1030D0002CD032005946B8687B6898473A68002877
:1030E00017D05B4658465B005B441419033BA07045
:1030F000D118D35C002B00D063705B460E707B73DD
:10310000B34514D030003CBC90469946A246AB462D
:10311000F8BD5B465B005B44033BD3189E701119FE
:10312000125D002A00D05A705B460B707E734246D7
:103130004B46287D00F038FA041E06D05346002B7B
:1031400003D13100286800F08BFC0E9B002BD9D0F6
:103150001C70D7E7FFFFFF0FF0B5DE464E4657461F
:1031600045460023E0B58DB00A936B4B8200D358DF
:103170000B90994600239B464B46079300F0B4F909
:10318000079C06000F006268EFF3108572B61368A3
:10319000002BFCD022000794BFF35F8F2468637B71
:1031A0009946002B67D092685C4B90464B441B01BC
:1031B000984443461A685B6810001900801BB941A7
:1031C00000295FDD0B9800F0EFF9002300269846F8
:1031D00000279A46079C6368BFF35F8F5A461A60C0
:1031E00085F310885346002B08D10028C6D10DB0B6
:1031F0003CBC90469946A246AB46F0BD0A9B414670
:1032000018024B461843D047089009916268EFF3C3
:10321000108572B61368002BFCD00794BFF35F8F44
:103220000899099A002A48DB114303D0079B1B69C0
:10323000002B5DD1079B1B68DA7B002A07D0510069
:103240008A1819688C4649466244033A51704A46C6
:10325000DA734B46079A013BD168CA5C0132CA5403
:103260005B46079A13615368BFF35F8F5A461A6033
:1032700085F3108882E700230026984600279A46A7
:103280000020A7E7002901D100289BD100212000C0
:1032900000F048FB43461E685F689B68079A9A46A1
:1032A0004346DB689846D3684B44013B1B780A933E
:1032B0001B020343136100208CE72369002BB9D064
:1032C00033003C005B1A94411A002300A74219D82E
:1032D0009F421BD059460491012103914946029116
:1032E00041460191514607980091FFF7B1FEB7E7BB
:1032F00000F0FAF8089A099B06000F0092197B412A
:103300009942E5D901225242D317E3E79642E1D927
:1033100001225242D317DDE798080020FFFFFF0F7C
:1033200010B5104C6368002B00D010BD23000E4A6E
:103330001021206800F014FA032000F0C9F80320DF
:1033400000F0A4F90320094900F0E8F8FFF7BAFDFE
:10335000074B9C46032360442375064B8000606046
:10336000DC60E2E7E4010020ED2E0010593100108E
:103370004000003498080020F8B5040000F0B4F8CC
:10338000FA2206000F00200000230021920003F023
:1033900099FD8019794104000D008F422DD82AD063
:1033A00006267642F71736196F41AF422CD9002610
:1033B000002700F099F832003B00121A8B41002BD5
:1033C00007DC04D02900200000F098F8F8BD002A9E
:1033D000F8D030003900FFF7A7FD0028F2DB3800F5
:1033E0000C4A536A984204D8916A8E42EAD99842AC
:1033F000E8D120BFF5E78642D2D901246442E5171F
:1034000007267642F717D4E7AF42D2D1A642CED8EC
:10341000CFE7C04600400540F0B5D6464F46464689
:10342000C0B5EFF305833F22134018001038EFF3C7
:10343000108C72B6204D2A68002AFCD0BFF35F8F33
:103440000122110081401D4C884661631C49170010
:103450000E788A463100C1400F400A4215D0194902
:103460008200646A51588C4219D3174BD258434694
:103470009E4353461E70BFF35F8F00232B608CF377
:103480001088002A06D0904704E0BFF35F8F2F60BA
:103490008CF310881CBC90469946A246F0BD0B4A9E
:1034A0009B00904643441A681A60BFF35F8F002365
:1034B0002B608CF31088EDE7280100D00040054018
:1034C000CA080020B4080020F4070020D03F0540BF
:1034D00010B50100024A0348FFF7B6FC10BDC04614
:1034E000847C0010C8080020034B596A0A00986ABF
:1034F000596A8A42FAD1704700400540064A536A29
:103500009942FCD807D1044B02E05A6A914202D199
:103510009A6A8242F9D370470040054070B50400B2
:103520000D00EFF3108672B61A4A1368002BFCD018
:10353000BFF35F8F002D1BD0200000F033FD164934
:1035400081420AD0200000F035FD0121200000F06A
:1035500017FD0123A340114A1360114BA400E5504D
:10356000BFF35F8F00220B4B1A6086F3108870BD8B
:103570000B4BA200D5500122A2400A4920000B7833
:1035800093430B70044900F03FFD0021200000F040
:10359000F7FCE5E7280100D0193400103860054039
:1035A000F4070020CA080020F0B54F46D64646462C
:1035B000C0B50700304C616A0D00A66A616AA94275
:1035C000FAD18B4208D805D001201CBC9046994600
:1035D000A246F0BDB242F7D9EFF3108972B6274880
:1035E00001680029FCD0BFF35F8F01252449BD404D
:1035F0008C460978204C0E002E438846F1B28A464C
:10360000614650460870391D1E48890065630A519D
:10361000B9000B50216A0020294219D0616A0800C4
:10362000A66A616A8142FAD18B4219D801D1B242AD
:1036300016D8C2451DD0104B1F201D625D630123AB
:103640000740BB40104A1E381360634642461A705A
:10365000BFF35F8F0022094B1A6089F31088B4E72B
:103660000020BFF35F8F0022044B1A6089F310889B
:10367000ABE70120ECE7C04600400540280100D040
:10368000CA080020B408002080E200E010B5EFF383
:10369000108472B60A490B68002BFCD0BFF35F8F11
:1036A00001238340074A0848136202789A43027054
:1036B000BFF35F8F00230B6084F3108810BDC046FA
:1036C000280100D000400540CA080020024B9C465B
:1036D00061448900016070474000003410B5040067
:1036E000FFF7F0FB01002000FFF7F0FFFF2323713D
:1036F000BFF35F8F10BDC04670B505000E0014000B
:10370000002924D0002A24D080686B689847296853
:1037100000280ED063001B197200033B9219CB18CE
:10372000033A9E7088188A5C002A14D10470300015
:103730000EE073009B196200033B1219CB18033A89
:103740009C7088188A5C002A00D05A70067020008D
:1037500070BD0800FCE75A7004703000F8E7C046FE
:1037600030B583600023CCB24373013304734260ED
:103770008373C4730D000068012C06D9421C013309
:10378000DBB2137003329C42F9D1FF2129404B0078
:103790005918002340180338437030BDF8B5CE46A1
:1037A000474606000C0080B5002907D04D0003688D
:1037B0006D18033D5A195778002F04D120000CBC16
:1037C00090469946F8BD7900C919033988464344A3
:1037D0005978894600215970517073683A00210068
:1037E000806898473368002814D042469A1894702D
:1037F00059195B5D002B00D053700F7027004946AC
:103800003000FFF7CBFF390002003000FFF774FFF4
:103810000400D3E7424641465D19AF709A185B5CDD
:10382000002B00D06B701470E9E7C046F0B5574626
:103830004546DE464E46E0B50D006B0001685B195B
:10384000DF1E0400C85D83B00192CA1900284CD065
:1038500043001B18033BCB185E78B446002E16D1EC
:10386000019E002E3ED0E67B002E04D073009B19F3
:10387000CB18033B5D70E57300282FD100235370F4
:1038800003B03CBC90469946A246AB46F0BD7200E0
:103890006244033A89184A78904600224A70914659
:1038A0005A70010032002000FFF726FF434682468F
:1038B000002B07D05B0021684344033BCB185A78A8
:1038C000002A16D1424651462000FFF715FF216815
:1038D000019BCA19002BC6D10028CFD043001B186A
:1038E000033BCB1800219970C8E7019B002BBAD18C
:1038F000C4E75000801803380918487883464846C2
:103900004870587041462000FFF7F6FE5946804641
:103910002000FFF743FF414602002000FFF7ECFEC6
:103920008046CFE7F0B54E464546DE465746E0B501
:10393000467B040075000068AD19033D83B001911A
:10394000415D421900294ED04B005B18033BC31860
:103950005F78BC46002F18D1019D002D40D0E57B3B
:10396000002D04D06B005B19C318033B5E70E67337
:10397000002931D1002330005370617303B03CBC87
:1039800090469946A246AB46F0BD7A006244033A9F
:103990008018427893460022427091465A70200067
:1039A0003A00FFF7A9FE5B468046002B07D05B007C
:1039B00021685B44033BCB185A78002A17D15A463A
:1039C00041462000FFF798FE019B01002068421944
:1039D000002BC4D10029CDD04B005B18033BC3188A
:1039E00000209870C6E7019B002BB8D1C2E75000B9
:1039F000801803380918487882464846487058703D
:103A000059462000FFF778FE53468346002B07D027
:103A10005B0021685344033BCB185A78002A06D137
:103A2000594652462000FFF767FE8346C7E750001D
:103A300080180338091848464F7848705870514626
:103A40002000FFF759FE390081462000FFF7A6FE4F
:103A5000494602002000FFF74FFE8246E0E7C046DD
:103A600070B5040000292CD0437B8B422ED0056812
:103A700048004018033828188278002A21D05300C3
:103A80009B18033BEA5CEE188A4202D11BE0002A35
:103A900008D053009B18033BEB185A788A42F6D1A2
:103AA00042785A7000230122837043702000FFF790
:103AB000BDFE617B02002000FFF71EFE6073012047
:103AC00000E0002070BD43783370EBE7012219005D
:103AD000FFF7ACFE60730120F4E7C0462B4B2C4A85
:103AE00070B51A602B4A2C4B2C491A6010008B6859
:103AF0009843FBD12A4C2B4B9C4209D2013B1D1B06
:103B0000AD080135AD002D1908CC9847AC42FBD16A
:103B100000F07AF8244A204B1A60204A9368DB01AF
:103B20008033FBD14022214B214C9A675A671A6798
:103B3000DA66204B9C420BD2013B1D1BED08013580
:103B4000ED002D1920000834FFF7C8FDAC42F9D173
:103B5000194C1A4DA168C022280003F0F9FAA5609B
:103B6000FFF7A2F900F088FBFFF7DAFB144C154BC6
:103B70009C4209D2013B1D1BAD080135AD002D193A
:103B800008CC9847A542FBD170BDC04600E000407C
:103B9000BFCDFFFFFE7F3C0000F0004000C00040B2
:103BA000C0060020D0060020FFFFFF0100F001400A
:103BB000B8060020C006002000ED00E00000002054
:103BC000D0060020D406002000BEFDE70FB400B5EB
:103BD000084883B003F0CEFB049B002B07D005A957
:103BE0001800019101F09EFE034803F0C3FB00BEE4
:103BF000FDE7C046A87C0010B87C001010B5014855
:103C0000FFF7E4FFBC7C001030B50C2083B000F05F
:103C100071F9FFF763F900280ED09A4B9A4A1A609F
:103C20005A609A60DA601A615A619A61DA611A62BE
:103C3000964A5A6203B030BD954CA06700F062F915
:103C40000122944B1A60636C012BFCD10322924B2E
:103C50001A608F4A936B012BFCD1C0228F4B9201CB
:103C60001A608F4B8F491A6010008B689843031EAF
:103C7000FAD1022401218C4A8C480633009400F0CA
:103C800055F905238A4A01218A48009400F04EF92B
:103C9000894B5A68FF2A02D8802252005A6080223B
:103CA000784C7D4B21691201834D1A60002905D0A3
:103CB000606901F0B1FE01300138FDD1E0217E4B99
:103CC00002201A681140802252012A4311601968AB
:103CD000484003210140116004219A681142FCD040
:103CE0008022802192012A43090111608022520022
:103CF0005A60724B2361724B5968FF2900D85A6091
:103D000003226F48634B01211A6002009368194235
:103D1000FCD0E02513681D4080235B0103431D6038
:103D200012684A400321114019600221644A9368D5
:103D30001942FCD0802380219B01034309011960B3
:103D40008021604B4900516063615F4B5A68FF2AD4
:103D500000D8596080225D4BE16912015A4D1A600A
:103D6000002905D0606901F057FE01300138FDD10E
:103D7000E02255490B681A4080235B012B431A60EF
:103D8000802380229B012B4312011A6080223E4B2C
:103D900052004A60E3614E4B5968FF2900D85A60CF
:103DA00080224C4B216A1201494D1A60002905D02E
:103DB000606901F031FE01300138FDD1E022444953
:103DC0000B681A4080235B012B431A6080238022FA
:103DD0009B012B4312011A60802380225B004B6001
:103DE000294BD20223623C4B5968914200D25A605F
:103DF00080223A4B616A1201374D1A60002905D0C2
:103E0000606901F009FE01300138FDD1E02232493C
:103E10000B681A4080235B012B431A6080238022A9
:103E20009B012B4312011A608023DB024B60174B6E
:103E300063622B4B5A68FF2A02D8802252005A60D4
:103E40008022284BA1691201254D1A60002905D056
:103E5000606901F0E1FD01300138FDD1E022204927
:103E60000B681A4080235B012B431A608023802259
:103E70009B012B4312011A6080235B004B60114BA6
:103E8000A361D7E618080020006CDC021BB7000015
:103E9000008000403CB0004030B0004000E00040F6
:103EA00000F0004000C00040002F68590080024030
:103EB00000389C1C00C0024030800040001BB7004E
:103EC0003C800040405973075480004054B000408B
:103ED0006080004060B000406C8000406CB00040EA
:103EE0004880004048B00040014B8000C0587047F7
:103EF000180800208023024A9B000343D3627047C6
:103F000000800540AA23064A1B0113602F230549A0
:103F1000D360054B19605368002BFCDA7047C0462C
:103F20000040024000B0FA0000600240F8B51E00F8
:103F300001235B42436000230400836001600C2086
:103F4000170001F069FD4101091A8D01691AC900C4
:103F500009188901380001F05FFDC021231D890186
:103F600019432123A0600B602268002AFCDA069B1B
:103F700036041B031E430823E6600B60F8BDC046F1
:103F800001238340002904D0034A1360034A1360CD
:103F90007047034A1360FBE780E200E000E100E0C5
:103FA00080E100E0024B10309B688000C0587047F1
:103FB00000ED00E070B50D00EFF3108672B60F4A09
:103FC0001368002BFCD0BFF35F8F0D4B10309B6844
:103FD00084001B590B4A934203D09D4201D0FFF746
:103FE0000DFE074B9B681D51BFF35F8FBFF35F8FC3
:103FF0000022024B1A6086F3108870BD240100D0A5
:1040000000ED00E0CD010010F0B5DE4657464E460B
:104010004546E0B50C0083B0EFF3108A72B65B4AF8
:104020001368002BFCD0BFF35F8F102291468144B0
:104030004A46574B96009B689D59564B98469D4261
:1040400005D0A54216D0544FEB1B2F2B14D9504B43
:104050009B689D51BFF35F8FBFF35F8F00224B4B77
:104060001A608AF3108803B03CBC90469946A24679
:10407000AB46F0BD1D00EAE7012383409B465A464C
:10408000464B1B681A4000925A46454B1A60BFF3D4
:104090005F8FFCF7E8F80190002803D0814501D03C
:1040A000FFF7ACFD01232A009A431300DB1B5B41A1
:1040B00042495943090D93689C4208D15BE0430093
:1040C0001B189B00FB189868A04211D01A0006200C
:1040D00010560028F3DA009B002B05D05A46314BCE
:1040E0001A602E4B1A60B2E75A462D4B1A60AEE7A3
:1040F00006201856002822DB4200111889007C187F
:104100008846A1689960E179D97106216156997153
:10411000A1797F291FD8A488F91A6405241544447D
:104120000919E0240905490D240221439980121838
:104130001D4B9200BF181A781870BA71CBE701981E
:1041400000280BD1FF30907118489080164A1078E3
:1041500011709871BFE7BD210902E7E7144A1549BC
:10416000D21A083A5002400D014399801249520870
:104170000A43DA80AFE70620105613000028BBDAA6
:10418000019A002AEAD14546E0E7C046240100D062
:1041900000ED00E0CD0100100C02002000E100E085
:1041A00080E100E080E200E0C908002000BDFFFFE0
:1041B0004602002000F0FFFF00F8FFFFAAAA00005F
:1041C000F8B5012504000543FCF74DF80200EFF3B4
:1041D000108672B621490B68002BFCD0BFF35F8FAD
:1041E0001F492000401A4041224B43431B0D1D48EC
:1041F000920087685BB2BF58AF421CD006228A5635
:104200009A421CD012228A569A4222D01E228A56E4
:104210009A4220D02A228A5603209A4210D0124A6B
:1042200011781370A171BFF35F8F00220B4B1A60DE
:1042300086F31088F8BD81680C488850EFE70020AD
:104240004200121892008918FF228A71084A8A8057
:10425000E5E70120F4E70220F2E7C046240100D0A0
:104260000C02002000ED00E0C9080020CD01001084
:1042700000BDFFFFAAAA0000F0B500220324FF271B
:10428000802620003D00094B11009C461040C000D4
:104290008540A14361440B680132AB433500854042
:1042A0002B430B60202AECD1F0BDC04600E400E0B7
:1042B0009A4200D2885470477047C046F8B55746B6
:1042C0004E46DE464546E0B51F000A9B05009B466C
:1042D0000D9B0E00914692469B0718D10B9B0C9AA2
:1042E000934214D213000B9AB8469B1A4B444C4687
:1042F0000F0006001D002200434601343900202033
:10430000B047AC42F7D1AA4635003E0047460B9B6A
:10431000002B38D09A441C00D04653461A1B5B46EB
:10432000013C185D31003B00A847002CF5D10D9BE6
:104330009B0721D543464A469C1A0C9BA3421BD996
:104340003A009A464F469146E2194B4631002020EA
:104350000134A8475445F7D343460C99DB1B01337E
:10436000B9460022994203D343464A1E4A44D21A10
:10437000434690460133984440463CBC904699469B
:10438000A246AB46F8BDD046D1E7C046F0B54F4691
:104390004646D646C0B584B098460EAB1B78129FF1
:1043A000994694460D9C109B119EBA0725D4002E69
:1043B00069D19C4200D3C2E001223A4092461F2CB0
:1043C00000D9BBE00C9A551E302201E0202C03D00E
:1043D00001342A55A342F9D85246002A0DD0B442DE
:1043E0000BD21F2C62D80C9A551E302201E0202CD3
:1043F0005CD001342A55B442F9D1FA0635D57A0594
:104400005DD4002C57D10F9B102B00D17CE00F9B6B
:10441000022B00D18DE030230C9A012413704B46FF
:10442000002B27D02D230C9A135501340C9B624688
:1044300000930397434602960194FFF73FFF04B0B1
:104440001CBC90469946A246F0BDBB0663D4202C06
:10445000ECD00C9B1A19013478231370202CE5D072
:1044600030220C9B1B191A700134202CDED04B46D5
:10447000002BD7D17B0735D43B07D7D520230C9A07
:1044800013550134D2E7012215003D40AA463A42B5
:1044900020D04A46002A2AD10C323A4227D19C42E7
:1044A0009DD21F2C00D88DE7202E19D92024FA0682
:1044B000BCD57A0503D4A3421BD0A64219D00F9BCA
:1044C000102BC2D0022BC9D1202CAFD00C9B1B19B2
:1044D000013440E09C4200D38FE71F2C00D871E7E5
:1044E00020248AE72B230C9A135501349EE7013EC2
:1044F000D5E7631E012C00D185E70F9A102A20D042
:10450000022A25D01C00ABE7BB060DD478230C9AF9
:1045100001241370A4E7202C00D187E758220C9BBC
:104520001B191A70013499E758230C9A012413704F
:1045300096E70C9A60330124137091E7202400263B
:104540005BE7023CBA06E9D40C9A12191C0083E717
:104550000C9A9246534462221A707FE710B50028E5
:1045600000D110BD02F0F8FEFBE7C0460B0010B50D
:10457000002802D049681B68984710BDF0B5DE4698
:10458000574645464E46E0B59BB09B46249B0A9055
:104590009846259B0B910C924046424619009A463C
:1045A00001F003FD002800D0E8E00122404651461A
:1045B0007F4B524201F0F4FC002800D0DEE00122E3
:1045C000404651467B4B524201F0D4FC002800D0BB
:1045D000D4E0002200234046514601F0CBFC0028E5
:1045E00000D0CAE15346C14609938023289ADB00D4
:1045F0001A400E92289A1A4201D1062326934C465D
:10460000099B234300D0D9E0289B002600271B05E7
:1046100000D4AEE100230D93269B19000D9B994217
:1046200000DCB0E1C81A431E26938023289ADB00E1
:104630001A430023002528920D93279B0024AB42A8
:1046400000D95C1B0223289A1A400E92289A134222
:1046500003D06B426B415B421C400D9B002B07D08B
:104660004846099932003B0001F039FC8146099126
:10467000002200234046514601F07CFC002805D072
:10468000802000068446099961440991289A4A4B82
:104690000A9E13404A460493269B0B990293099B5A
:1046A00003940092019330005B460C9A884600F018
:1046B000A1F90400002D72D0289B220098061F2328
:1046C000C017984341465B466530B0470D9B671C59
:1046D000DA179C18DB0F98466B1E9946002554404C
:1046E00001E0202D13D00AAA94461F232000634422
:1046F0000A2101355E1901F08FF930313170200047
:104700000A2101F089F926000400092EE9D80523C1
:1047100006934B460593002304930A3303934346C1
:104720003A000A9E0B9F029312AB009339005B463E
:1047300030000195FFF72AFE0E9B0400002B2ED0BF
:104740000C9B279AC51AAA4229D93C008146984653
:104750001700434621005A1920205B460135B04717
:10476000AF42F6D84C460C992798631A01330022C1
:10477000984200D30AE10134141910E0289B424604
:104780000493279B0B990393269B0A980293534605
:10479000009201935B460C9A00F02CF90400200073
:1047A0001BB03CBC90469946A246AB46F0BDC04605
:1047B000FFFFEF7FFFFFEFFFFFF7FFFF764B099D46
:1047C0009C466800400D604401F002FC734A744B43
:1047D00001F08EFB734A744B01F078FB2B03734A94
:1047E0001B0B1A4306000F00714B110048460022B4
:1047F000099501F062FB6F4A6F4B01F079FB0200F3
:104800000B003000390001F061FB01F0F9FB0D9065
:1048100001F0DEFB694A6A4B04000D0001F068FB01
:104820000022684B01F052FB01F0EAFB664A0600E9
:10483000664B2000290001F05BFB040030000D00F6
:104840000F9601F0C5FB624A624B01F051FB02007A
:104850000B002000290001F030FB02000B000600D5
:104860000F0001F045FB320004000D003B0030005A
:10487000390001F02BFB002210901191564B2000C3
:10488000290001F02CFB0022544B01F01FFB020019
:104890000B002000290001F022FB0022504B01F008
:1048A00015FB02000B002000290001F018FB0D0091
:1048B000802132003B000400C905002001F0FDFA10
:1048C00002000B002000290001F000FB02000B0099
:1048D0001098119901F003FB0022344B01F0F6FA15
:1048E000404A0F9B9446634400221B0501F000FBE5
:1048F00006000F0002000B004846099901F03AFB40
:1049000000280AD00D9B3000013B39000D93002296
:10491000324B01F0E4FA06000F00C6250D99330072
:1049200063318D42AD4128996D420435090500D4AB
:1049300083E63B4300D16FE6099C484621002A4AA2
:104940002A4B01F025FB002808D000224846210010
:10495000274B01F00FFB002800D05DE6269B002BC3
:1049600000D16AE60E9B5A1E9341269AD31A2693CB
:1049700063E6002304250D935FE680231B06534462
:10498000C146099331E6002326934EE60A00844689
:10499000013A6244121BEEE601FCFFFFFB799F50D7
:1049A0001344D33FB3C8608B288AC63F0000F03F52
:1049B0000000F83F61436F63A787D23F71A3790975
:1049C0004F930A400000E03F1655B5BBB16B024063
:1049D000EF39FAFE422EE63F00002C400000244052
:1049E00000001840FF0300002D431CEBE2361A3F85
:1049F00080842E41F0B54E46DE4657464546E0B52A
:104A000097B09946209E219F229B83469846079106
:104A10000C923B0032003000390001F0C6FA002849
:104A200000D0C1E1012230003900CA4B524201F0EE
:104A3000A1FA002800D0E0E0012230003900C64B86
:104A4000524201F0ADFA002800D0B6E0002230005A
:104A50003900C24B01F0A4FA002800D098E00022EF
:104A600030003900BE4B01F085FA002800D08FE0FD
:104A7000002200233000390001F07CFA002800D029
:104A8000B0E000230D93249B5B0501D406239846D8
:104A900008AB9C461722002430234146624404E0C0
:104AA000013413550139202C01D00929F8D8884642
:104AB0003000390001F0A4FA4346DA00A94B0500A2
:104AC0009B181A685B680892099301F081FA02004A
:104AD0000B003000390001F0F0F9089A099B01F051
:104AE00007FA0A900B9101F0AFFA824601F06CFAD6
:104AF00002000B000A980B9901F0DFF900229A4B93
:104B00000A900B9101F04CFA002800D1C0E001237B
:104B10009C46E244504601F057FA02000B00089808
:104B2000099901F02DFA002802D000239A46013598
:104B30004346002B69D008AB17269C46089566446F
:104B4000554614E001235B4243440A2128009A465B
:104B500000F062FF013430313719397028000A2122
:104B600000F05AFF092D00D8D5E0D0460500202CD2
:104B7000E8D10323249A1340012B00D100E10EABAE
:104B80009846249B01940393239B029343461EE083
:104B9000249B58460493239B009601970393434616
:104BA0000C9A029307994B46FFF7E8FC17B03CBC00
:104BB00090469946A246AB46F0BD249B5B070ED4B7
:104BC00003226A4B24990192039123990291009345
:104BD00058464B460C9A0799FFF770FBE6E704220C
:104BE000634BEFE73B0032000020002101F065F944
:104BF000012306000F000D9345E7249B0393239B9D
:104C00000293042301935B4BE1E7280001F0E0F9F4
:104C100002000B003000390001F04FF9524B002226
:104C200006000F0001F0A6F90EAB984600280AD145
:104C30000022300039004C4B01F0B2F9002802D1BB
:104C4000EB0700D50135202C32D008AA9446172353
:104C5000280063440A2101341E1900F0B1FE3031EE
:104C6000280031700A2100F0ABFE051EEBD10323B2
:104C7000249A1340012B00D191E01F2C00D980E72A
:104C80000D9B002B3BD02D2342461355013478E772
:104C900000220A980B99344B01F06CF9002800D0DF
:104CA00046E75346002B67D101239C46E2443FE789
:104CB0000323249A1340012B00D062E7239B002B8F
:104CC00000D15EE70D9B002B03D1249A0C331342D5
:104CD00002D0239B013B2393239B9C42CDD208AB64
:104CE0009C461722302362441F2C06D82399013496
:104CF00013558C42C1D0202CF8D1202441E7249BAD
:104D00005B0721D4249B1B0700D43AE720234246AB
:104D10001355013435E75746089D202C37D0220023
:104D200030214046002F08D00132B154202A43D010
:104D3000D3431B191B18002BF6D10EAB98462E231C
:104D40004146541C8B547EE72B23424613550134B5
:104D500017E7C046FFFFEFFFFFFFEF7F65CDCD41B7
:104D600065CDCDC1C07E00100000E03FC87C0010C2
:104D7000CC7C0010D87C0010DB0700D4D8E693E789
:104D8000239B002B00D1FAE60EAB98469AE703234B
:104D9000249A1340012B00D0F1E60EAB9846239BDA
:104DA000002B00D169E78DE7249B0393239B02939B
:104DB00003230193064B0AE70323249A202413407C
:104DC000012B00D0DBE6239B2024002BDCD1D6E690
:104DD000D47C0010F0B5DE464E4657464546E0B559
:104DE0009FB01C00289B93460993CF4ACF4B89461E
:104DF00008901A60002900D116E2002320789A4614
:104E0000002800D118E226001D004C460AE02A00C6
:104E10006F1C5B46089D2100A8473D000136307895
:104E200000287AD02528F2D110239A46083B9946CB
:104E3000043B9846023B00219C46721C10781600E9
:104E40000300203BDBB2102B03D8B94F9B00FB586B
:104E50009F460300303B092B3CD900230A932A28A4
:104E600000D171E0002398462E2847D00300683B0C
:104E7000DBB2122B1FD8AF4A9B00D3589F460123A9
:104E800001321943DAE7634601321943D6E7434654
:104E900001321943D2E7534601321943CEE74B465C
:104EA00001321943CAE770786C2800D1BFE2802331
:104EB0005B00194301360300253BDBB2532BA6D818
:104EC0009D4A9B00D3589F4680235B00707819430E
:104ED0000136F0E700270300B800C0190136400092
:104EE000C018337830381A00303A0700092AF3D94D
:104EF0000A901800002398462E28B7D18023707896
:104F0000DB0019430300303B721C092B00D895E1EC
:104F10002A2800D1A6E11600A8E7A146AA462C003F
:104F2000D34503D801235B425B449A465B46524615
:104F300049460020089DA84720001FB03CBC904671
:104F40009946A246AB46F0BD099B40CB0A96002E7F
:104F500003DB50780993561C84E7283801437042DC
:104F60000A9009935078561C7CE7782800D1D4E148
:104F7000582800D168E26F2800D152E3622800D19E
:104F8000D8E110230A009A430B92692801D000F05F
:104F9000A2FC0A230C934B0500D4D5E101230B9A04
:104FA0009A430B92692800D1CEE1642800D1CBE16D
:104FB0000B9A802311009B0019408A461A4200D0A8
:104FC00032E3802311005B00194089461A4201D068
:104FD00000F002FC13005B0600D510E30B9B1B06E0
:104FE00001D400F06EFC099B04CB1204120C924613
:104FF00009935346002B00D064E30B9A1033110041
:1050000099430B91520500D45CE3002399460B9B16
:1050100006930A9B0593434604930C9B039300233A
:10502000DEE27078682800D107E280230136194358
:1050300041E780239B007078194301363BE74628FF
:1050400000D174E10722099B0491073393430A9A24
:1050500019000392424602920CC9089800920193EB
:1050600009912A005B462100FFF7C4FC01360500C8
:10507000D5E6099B1A0008CA9146002B00D105E12C
:10508000212211438A460EA884461F2161440995B6
:1050900000220F27A4460D0002E0202A0CD00B00AE
:1050A0003C001C4020003730092C00D80738013262
:1050B000A85419090F2BF0D86446099DF0E08B071E
:1050C00000D4D1E1099B2A0099466B1C98464B46B7
:1050D00001CB21009946089F5B46C0B2B8470A9BA6
:1050E0009C466544012B00D890E2B2465E46474696
:1050F000A846089D3A003300013721002020A84728
:105100004745F7D1B3464B4656463D000993013615
:1051100085E62A006F1C5B46089D21002520A847D4
:1051200001363D007BE6C046D54D001090080020BA
:10513000E07C0010247D0010707D0010099B04CBE2
:10514000994643460992002B00D097E013789C467D
:10515000002B00D1B3E302235B425A1C099B924609
:1051600018000A9F0B92504402E0834200D169E18B
:105170005A780133002AF8D1099A0A979B1A0B939F
:1051800080230A00DB001A400C92194204D00B9BCA
:10519000434501D943460B9302231A000A400D925E
:1051A0000B4200D184E16046002823D00C9B002BE9
:1051B00000D124E1A844C246099B57465B1B984690
:1051C000089BB2462A0026005C469B4609E0230065
:1051D0003100551CD8474346585D002800D13FE1B7
:1051E0002A009742F3D1A3463D00340056460D9B5A
:1051F000002B69D00B9B0A99A846994264D98C462A
:105200006544ED1A089B47469A46B04626005C4620
:105210003A002300013731002020D047AF42F7D1B8
:10522000A346340046464FE0D24B20780893002333
:105230009A46002800D0E6E5002471E643460600C1
:105240000A9F9800C01801324000801916780300A8
:1052500030003038303B0928F3D93000984616002A
:105260000A9703E6099B023604CB9046D243404698
:10527000D2171040804609933078F7E513789C46A2
:10528000002B00D11AE34346013B66E710220800D9
:1052900090431132104382460022490500D4F2E6C1
:1052A0005346069308230593434604931023039320
:1052B0000023029316AB019200932A005B46210063
:1052C0000898FFF763F805004B4601360993A6E5F9
:1052D000202302009A43472A04D180231B0119434B
:1052E00002239843452801D1202319430722099B13
:1052F0000491073393430A9A19000392424602929B
:105300000CC908980092019309912A005B4621007C
:10531000FFF734F90136050081E510230C930C23C7
:105320000A009A430B924B0500D43BE636E6202355
:10533000194387E602230C930B910B996428EED155
:105340000B9B5B0500D529E60B9A802311009B007F
:1053500019408A461A4200D0CEE0802311005B003B
:10536000194089461A4200D0DBE113005B0600D5E4
:105370001DE10B9B09991B0600D499E208C91BB2D9
:10538000D8171A18424092B209919246DA0F129237
:10539000002B09D1802310220B99DB000B40914395
:1053A0000B91002B00D012E10B9A6123920600D5DD
:1053B00041230EA91F228C46DBB262440A3B5746AA
:1053C0001395A2464D460C9CB1460D9316000AE07B
:1053D0003033DBB201357355A74200D21CE1202DDA
:1053E00000D119E107002100380000F015FBCBB215
:1053F0000929EDD90D9A94466344DBB2EAE7099B8B
:105400005F465B1B98460A9BB3469A462600089C5B
:105410002A003B003100A04743460135585D002873
:10542000F6D1534634000A935E46BB46DFE6C023FE
:105430009B00B078194302363DE5C023B07819438C
:10544000023638E50A979BE60C230A009A43143388
:105450001A4310230B920C934B0500D4A8E59DE54D
:10546000A34634005646C2E60A9A012A00D82EE224
:105470006B1E9F18089BB046994626005C462A0082
:105480002300013531002020C847BD42F7D1A34693
:1054900034004646099B3A0001CB210098467D1C0A
:1054A0005B46089FC0B2B847434601360993B6E44D
:1054B0000B9A0A98531C904200D80AE243199B1A8F
:1054C0001F00089BB24626005C469B462A0023002C
:1054D000013531002020D847BD42F7D10A9BA346B1
:1054E00001330B93099B34001B7856469C4660465B
:1054F000002800D05AE6E7E60722099B07339343CA
:10550000013294469C4462465F6809921A68FB1710
:105510001093119310981199030053400E930B00B0
:105520007B400F9394460E9A0F9B121A8B410E925A
:105530000F93FB0F6246129300233A439A463DD0E5
:105540000B9A6123920600D541230022DBB20EA9FB
:105550000A3B8C4691460D9343461F326244139595
:1055600015964D460E9E0F9FA14690460C9C149397
:105570000FE0C046B94200103032D2B24346013586
:105580005A55BA4500D17CE1202D00D17CE10600BE
:105590000F00220000233000390000F083FAD2B25D
:1055A000092AE9D90D9B9C466244D2B2E6E7FF2363
:1055B000099904C913401A000991E6E60B9A1033C1
:1055C000110099430B915205BAD5002399460B9BC4
:1055D00006930A9B0593434604930C9B0393129BEB
:1055E00002934B46019316AB2A00009321005B46C1
:1055F0000898FEF7CBFE01360500FFF710FCFF22EE
:10560000099B02CB11408A460993F2E44B4645467A
:1056100009930136FFF703FC4E465446A946139DF5
:10562000D5E708230C9387E60722099B07339343AA
:10563000013294469C44624609921A685B681000E5
:105640009A4613005246134307D10B9A10331100A8
:1056500099430B91520500D5D7E40B9A612392062A
:1056600000D541230022DBB20EA90A3B8C469146AD
:105670000D9343461F32624457461295A2464D464B
:105680000400B14690460C9E13930DE03032D2B226
:10569000434601355A550023BB4200D1FDE0202D81
:1056A00000D1FDE004000F0032000023200039008B
:1056B00000F0F8F9D2B2092AE8D90D9B9C46624461
:1056C000D2B2E5E70B9A6123920600D54123DBB203
:1056D0000EA90A3B1F228C460D93230062445446B8
:1056E000129517004D469A46B1460C9E08E030339D
:1056F000DBB201357B55B4420ED3202D0CD0040013
:105700003100200000F088F9CBB20929EFD90D9AB9
:1057100094466344DBB2ECE74E465446A946129DDC
:1057200075E4099B1A0008CAD91713925A184A40FF
:105730009146DA0F1292002B08D1802310220B9988
:10574000DB000B4091430B91002B2BD10B9A612373
:10575000920600D541230EAA1F279446DBB20A3BCE
:105760000D95674455460993A2464C46B1460C9E9A
:1057700008E03033DBB201357B55B4420ED3202D27
:105780000CD004003100200000F046F9CBB209290A
:10579000EFD9099A94466344DBB2ECE74E4654468F
:1057A000AA460D9D0B9B2A0006930A9B2100059398
:1057B000434604930C9B08980393129B0136029373
:1057C0005346019316AB00935B46FEF7DFFD139B38
:1057D00005000993FFF723FB099B04CB9146129325
:1057E000002A08D1802310220B99DB000B40914343
:1057F0000B91002B2BD10B9A6123920600D54123EC
:105800000EAA1F279446DBB20A3B0D956744554606
:105810000993A2464C46B1460C9E08E03033DBB2F9
:1058200001357B55B4420ED3202D0CD0040031003D
:10583000200000F0F1F8CBB20929EFD9099A94467B
:105840006344DBB2ECE74E465446AA460D9D0B9BE3
:105850002A0006930A9B21000593434604930C9B60
:1058600008980393002302935346019316AB0093C9
:105870005B46FEF78BFD129B050009930136FFF78F
:10588000CEFAB44200D87FE6149B4C460E960F9792
:10589000A9469846159E139D99E6A64200D8FEE6B5
:1058A000139B4E469846A9465446129DFFF7AFFB00
:1058B00008C9D8171A184240099166E500230B93CE
:1058C0005EE4099B04CB92460993FFF792FB2F00FD
:1058D000E0E50B930BE6063B0C932EE50EB401229C
:1058E00010B585B007AC08CC0100009452420448C2
:1058F0000394FFF76FFA05B010BC08BC03B018475B
:10590000B142001000B585B00391012102900093CF
:10591000034813004A4202A9FFF75CFA05B000BD34
:105920006D45001010B5094A0300146884B0002CBE
:1059300008D0012200910648524203A9A047012045
:1059400004B010BD01F016FD0020F9E7900800201A
:105950005D45001001480421014B184760020020FA
:1059600085590010142310B50100188804331B88D2
:10597000984710BD162310B50100188802331B8804
:10598000984710BDF0B5C64600B5002916D01423BF
:1059900004000125984618278900461843462168C7
:1059A00018883B88984701C4431E984140420540EF
:1059B000A642F3D1280004BC9046F0BD0125F9E7CA
:1059C000144A936F9B0815D29066D166002905D0C2
:1059D000FFE7FFE7FFE7516F106F704704B58021C5
:1059E0000906C2175140002800D0C84301F060FEEC
:1059F000002104BD936F5B08FDD3F0B5946ED56EA6
:105A0000576F166FFFF7E0FF9466D5665767166706
:105A1000F0BD0000000000D0134A936F9B0813D222
:105A200010665166002905D0FFE7FFE7FFE7516FD9
:105A3000106F704704B5002801D00020C04301F06A
:105A400037FE002104BDC046936F5B08FDD3F0B55F
:105A5000946ED56E576F166FFFF7E2FF9466D566AA
:105A600057671667F0BD0000000000D094464E4A0C
:105A7000926F9208624601D230E0C046F0B54A4EBD
:105A8000B56F6D08FCD3346E756E776F366F00F0AE
:105A900025F89446444A1466556657671667624669
:105AA000F0BDC0469446404A926F9208624601D2C9
:105AB00058E0C046F0B53C4EB56F6D08FCD3346E6F
:105AC000756E776F366F00F04DF89446364A14665F
:105AD0005566576716676246F0BDC046002B24DB4B
